S01100004C6561726E696E67432E73726563A0
S11300000C9434000C9451000C9451000C94510045
S11300100C9451000C9451000C9451000C94510018
S11300200C9451000C9451000C9451000C94510008
S11300300C9451000C9451000C9451000C945100F8
S11300400C9451000C9451000C9453000C945100E6
S11300500C9451000C9451000C9451000C945100D8
S11300600C9451000C94510011241FBECFEFD8E022
S1130070DEBFCDBF11E0A0E0B1E0EAE7F1E002C0ED
S113008005900D92A830B107D9F721E0A8E0B1E0BE
S113009001C01D92AA30B207E1F70E9466000C94D9
S11300A0BB000C9400001F920F920FB60F92112404
S11300B08F938091C6008093090181E080930801A9
S11300C08F910F900FBE0F901F901895CF93DF93D1
S11300D00E948800789480E091E00E94A300C5E02B
S11300E0D0E082E091E00E94A3008AE00E94B30085
S11300F02FEF81EE94E0215080409040E1F700C062
S11301000000219771F780E090E0DF91CF9108958E
S11301101092C50087E68093C400E2ECF0E0808191
S113012086608083E1ECF0E0808188618083808157
S1130130806880830895E0ECF0E0908195FFFDCF26
S11301408093C6000895CF93DF93EC0188818823C0
S113015039F0219690E00E949B0089918111FACF99
S1130160DF91CF910895E0ECF0E0908195FFFDCF11
S10D01708093C6000895F894FFCFB1
S10B017A410068656C6C6F0024
S9030000FC
